{
  "_format": "hh-sol-artifact-1",
  "contractName": "StrategyExecutor",
  "sourceName": "contracts/StrategyExecutor.sol",
  "abi": [
    {
      "inputs": [
        {
          "internalType": "address",
          "name": "vault_",
          "type": "address"
        }
      ],
      "stateMutability": "nonpayable",
      "type": "constructor"
    },
    {
      "anonymous": false,
      "inputs": [
        {
          "indexed": true,
          "internalType": "address",
          "name": "user",
          "type": "address"
        },
        {
          "indexed": true,
          "internalType": "address",
          "name": "agent",
          "type": "address"
        }
      ],
      "name": "AgentSet",
      "type": "event"
    },
    {
      "anonymous": false,
      "inputs": [
        {
          "indexed": true,
          "internalType": "address",
          "name": "user",
          "type": "address"
        },
        {
          "indexed": false,
          "internalType": "uint256",
          "name": "amount",
          "type": "uint256"
        },
        {
          "indexed": false,
          "internalType": "string",
          "name": "action",
          "type": "string"
        }
      ],
      "name": "StrategyYieldAllocate",
      "type": "event"
    },
    {
      "inputs": [
        {
          "internalType": "address",
          "name": "",
          "type": "address"
        }
      ],
      "name": "agentOf",
      "outputs": [
        {
          "internalType": "address",
          "name": "",
          "type": "address"
        }
      ],
      "stateMutability": "view",
      "type": "function"
    },
    {
      "inputs": [
        {
          "internalType": "address",
          "name": "user",
          "type": "address"
        },
        {
          "internalType": "uint256",
          "name": "amount",
          "type": "uint256"
        },
        {
          "internalType": "string",
          "name": "actionLabel",
          "type": "string"
        }
      ],
      "name": "executeAllocateYield",
      "outputs": [],
      "stateMutability": "nonpayable",
      "type": "function"
    },
    {
      "inputs": [
        {
          "internalType": "address",
          "name": "agent",
          "type": "address"
        }
      ],
      "name": "setAgent",
      "outputs": [],
      "stateMutability": "nonpayable",
      "type": "function"
    },
    {
      "inputs": [],
      "name": "vault",
      "outputs": [
        {
          "internalType": "contract ITreasurerVaultForExec",
          "name": "",
          "type": "address"
        }
      ],
      "stateMutability": "view",
      "type": "function"
    }
  ],
  "bytecode": "0x60a060405234801561001057600080fd5b5060405161055638038061055683398101604081905261002f91610040565b6001600160a01b0316608052610070565b60006020828403121561005257600080fd5b81516001600160a01b038116811461006957600080fd5b9392505050565b6080516104be6100986000396000818160c301528181610188015261027501526104be6000f3fe608060405234801561001057600080fd5b506004361061004c5760003560e01c80633222477c14610051578063ac3c0e3014610066578063bcf685ed146100ab578063fbfa77cf146100be575b600080fd5b61006461005f366004610390565b6100e5565b005b61008f610074366004610417565b6000602081905290815260409020546001600160a01b031681565b6040516001600160a01b03909116815260200160405180910390f35b6100646100b9366004610417565b61031d565b61008f7f000000000000000000000000000000000000000000000000000000000000000081565b83336001600160a01b038216148061011657506001600160a01b038181166000908152602081905260409020541633145b6101675760405162461bcd60e51b815260206004820181905260248201527f53747261746567794578656375746f723a206e6f7420617574686f72697a656460448201526064015b60405180910390fd5b6040516327e235e360e01b81526001600160a01b03868116600483015285917f0000000000000000000000000000000000000000000000000000000000000000909116906327e235e390602401602060405180830381865afa1580156101d1573d6000803e3d6000fd5b505050506040513d601f19601f820116820180604052508101906101f59190610439565b101561024f5760405162461bcd60e51b8152602060048201526024808201527f53747261746567794578656375746f723a20696e73756666696369656e742076604482015263185d5b1d60e21b606482015260840161015e565b604051630df0340b60e01b81526001600160a01b038681166004830152602482018690527f00000000000000000000000000000000000000000000000000000000000000001690630df0340b90604401600060405180830381600087803b1580156102b957600080fd5b505af11580156102cd573d6000803e3d6000fd5b50505050846001600160a01b03167f8b7bc0f93d7049862be9f2019ee60c1320ee6ee9ad66377ac50059d70fa4740985858560405161030e93929190610452565b60405180910390a25050505050565b3360008181526020819052604080822080546001600160a01b0319166001600160a01b03861690811790915590519092917f840ae875b50d711c2b0916bbe6cf88f87aa6f7968c0a63239825a091cd8a385191a350565b80356001600160a01b038116811461038b57600080fd5b919050565b600080600080606085870312156103a657600080fd5b6103af85610374565b935060208501359250604085013567ffffffffffffffff808211156103d357600080fd5b818701915087601f8301126103e757600080fd5b8135818111156103f657600080fd5b88602082850101111561040857600080fd5b95989497505060200194505050565b60006020828403121561042957600080fd5b61043282610374565b9392505050565b60006020828403121561044b57600080fd5b5051919050565b83815260406020820152816040820152818360608301376000818301606090810191909152601f909201601f191601019291505056fea2646970667358221220c1293ee91c044ee64dd7fd7aded425c4e71b01b4961c71d8302a293d2e42045964736f6c63430008140033",
  "linkReferences": {},
  "deployedLinkReferences": {}
}