{"contracts/BudgetController.sol":{"BudgetController":{"abi":[{"anonymous":false,"inputs":[{"indexed":true,"internalType":"address","name":"user","type":"address"},{"indexed":false,"internalType":"uint256","name":"limitWei","type":"uint256"}],"name":"DailyLimitSet","type":"event"},{"anonymous":false,"inputs":[{"indexed":true,"internalType":"address","name":"user","type":"address"}],"name":"DayReset","type":"event"},{"anonymous":false,"inputs":[{"indexed":true,"internalType":"address","name":"user","type":"address"},{"indexed":false,"internalType":"uint256","name":"amount","type":"uint256"},{"indexed":false,"internalType":"uint256","name":"newTotalToday","type":"uint256"}],"name":"SpendRecorded","type":"event"},{"inputs":[{"internalType":"address","name":"user","type":"address"},{"internalType":"uint256","name":"amount","type":"uint256"}],"name":"canSpend","outputs":[{"internalType":"bool","name":"allowed","type":"bool"},{"internalType":"uint256","name":"remaining","type":"uint256"}],"stateMutability":"view","type":"function"},{"inputs":[{"internalType":"address","name":"","type":"address"}],"name":"currentDayStart","outputs":[{"internalType":"uint256","name":"","type":"uint256"}],"stateMutability":"view","type":"function"},{"inputs":[{"internalType":"address","name":"","type":"address"}],"name":"dailyLimitWei","outputs":[{"internalType":"uint256","name":"","type":"uint256"}],"stateMutability":"view","type":"function"},{"inputs":[{"internalType":"uint256","name":"amount","type":"uint256"}],"name":"recordSpend","outputs":[],"stateMutability":"nonpayable","type":"function"},{"inputs":[{"internalType":"uint256","name":"limitWei","type":"uint256"}],"name":"setDailyLimit","outputs":[],"stateMutability":"nonpayable","type":"function"},{"inputs":[{"internalType":"address","name":"","type":"address"}],"name":"spentToday","outputs":[{"internalType":"uint256","name":"","type":"uint256"}],"stateMutability":"view","type":"function"}],"evm":{"bytecode":{"linkReferences":{},"object":"608060405234801561001057600080fd5b506104f7806100206000396000f3fe608060405234801561001057600080fd5b50600436106100625760003560e01c80631881656b146100675780632bb374821461009657806331159b41146100c45780638aeac501146100d957806392abf049146100f9578063b20d30a914610119575b600080fd5b61007a6100753660046103f8565b61012c565b6040805192151583526020830191909152015b60405180910390f35b6100b66100a4366004610422565b60016020526000908152604090205481565b60405190815260200161008d565b6100d76100d2366004610444565b61020e565b005b6100b66100e7366004610422565b60026020526000908152604090205481565b6100b6610107366004610422565b60006020819052908152604090205481565b6100d7610127366004610444565b610395565b6001600160a01b038216600090815260208190526040812054819080820361015d5760016000199250925050610207565b600061016c6201518042610473565b6001600160a01b0387166000908152600160205260408120549192509082146101965760006101b0565b6001600160a01b0387166000908152600260205260409020545b9050826101bd8783610495565b116101e5576001866101cf83866104ae565b6101d991906104ae565b94509450505050610207565b60008184116101f55760006101ff565b6101ff82856104ae565b945094505050505b9250929050565b33600061021e6201518042610473565b6001600160a01b038316600090815260016020526040902054909150811461028f576001600160a01b03821660008181526001602090815260408083208590556002909152808220829055517fb9d5023ff2c20aedd12a3db7b7a63e8191d40bbaa5b2755d10e4348cd7fcbb669190a25b336000908152602081905260409020548015610323573360009081526002602052604090205481906102c2908690610495565b11156103235760405162461bcd60e51b815260206004820152602660248201527f427564676574436f6e74726f6c6c65723a206461696c79206c696d697420657860448201526518d95959195960d21b606482015260840160405180910390fd5b3360009081526002602052604081208054869290610342908490610495565b909155505033600081815260026020908152604091829020548251888152918201527f765be995addb0fb6c222c79511546c900671ddc49141069770af142e8ff0cfb2910160405180910390a250505050565b336000818152602081815260409182902084905590518381527fd3d22ffd28b02735cf411bd7f925bd8da01212c7028153e0d632e2953ac3088e910160405180910390a250565b80356001600160a01b03811681146103f357600080fd5b919050565b6000806040838503121561040b57600080fd5b610414836103dc565b946020939093013593505050565b60006020828403121561043457600080fd5b61043d826103dc565b9392505050565b60006020828403121561045657600080fd5b5035919050565b634e487b7160e01b600052601160045260246000fd5b60008261049057634e487b7160e01b600052601260045260246000fd5b500490565b808201808211156104a8576104a861045d565b92915050565b818103818111156104a8576104a861045d56fea26469706673582212202e5c29afbd1ebf96f7fb7d3af7f66e729c749ff1f1e7b809369e221cb72b79f464736f6c63430008140033","opcodes":"PUSH1 0x80 PUSH1 0x40 MSTORE CALLVALUE DUP1 ISZERO PUSH2 0x10 JUMPI PUSH1 0x0 DUP1 REVERT JUMPDEST POP PUSH2 0x4F7 DUP1 PUSH2 0x20 PUSH1 0x0 CODECOPY PUSH1 0x0 RETURN INVALID PUSH1 0x80 PUSH1 0x40 MSTORE CALLVALUE DUP1 ISZERO PUSH2 0x10 JUMPI PUSH1 0x0 DUP1 REVERT JUMPDEST POP PUSH1 0x4 CALLDATASIZE LT PUSH2 0x62 JUMPI PUSH1 0x0 CALLDATALOAD PUSH1 0xE0 SHR DUP1 PUSH4 0x1881656B EQ PUSH2 0x67 JUMPI DUP1 PUSH4 0x2BB37482 EQ PUSH2 0x96 JUMPI DUP1 PUSH4 0x31159B41 EQ PUSH2 0xC4 JUMPI DUP1 PUSH4 0x8AEAC501 EQ PUSH2 0xD9 JUMPI DUP1 PUSH4 0x92ABF049 EQ PUSH2 0xF9 JUMPI DUP1 PUSH4 0xB20D30A9 EQ PUSH2 0x119 JUMPI JUMPDEST PUSH1 0x0 DUP1 REVERT JUMPDEST PUSH2 0x7A PUSH2 0x75 CALLDATASIZE PUSH1 0x4 PUSH2 0x3F8 JUMP JUMPDEST PUSH2 0x12C JUMP JUMPDEST PUSH1 0x40 DUP1 MLOAD SWAP3 ISZERO ISZERO DUP4 MSTORE PUSH1 0x20 DUP4 ADD SWAP2 SWAP1 SWAP2 MSTORE ADD JUMPDEST PUSH1 0x40 MLOAD DUP1 SWAP2 SUB SWAP1 RETURN JUMPDEST PUSH2 0xB6 PUSH2 0xA4 CALLDATASIZE PUSH1 0x4 PUSH2 0x422 JUMP JUMPDEST PUSH1 0x1 PUSH1 0x20 MSTORE PUSH1 0x0 SWAP1 DUP2 MSTORE PUSH1 0x40 SWAP1 KECCAK256 SLOAD DUP2 JUMP JUMPDEST PUSH1 0x40 MLOAD SWAP1 DUP2 MSTORE PUSH1 0x20 ADD PUSH2 0x8D JUMP JUMPDEST PUSH2 0xD7 PUSH2 0xD2 CALLDATASIZE PUSH1 0x4 PUSH2 0x444 JUMP JUMPDEST PUSH2 0x20E JUMP JUMPDEST STOP JUMPDEST PUSH2 0xB6 PUSH2 0xE7 CALLDATASIZE PUSH1 0x4 PUSH2 0x422 JUMP JUMPDEST PUSH1 0x2 PUSH1 0x20 MSTORE PUSH1 0x0 SWAP1 DUP2 MSTORE PUSH1 0x40 SWAP1 KECCAK256 SLOAD DUP2 JUMP JUMPDEST PUSH2 0xB6 PUSH2 0x107 CALLDATASIZE PUSH1 0x4 PUSH2 0x422 JUMP JUMPDEST PUSH1 0x0 PUSH1 0x20 DUP2 SWAP1 MSTORE SWAP1 DUP2 MSTORE PUSH1 0x40 SWAP1 KECCAK256 SLOAD DUP2 JUMP JUMPDEST PUSH2 0xD7 PUSH2 0x127 CALLDATASIZE PUSH1 0x4 PUSH2 0x444 JUMP JUMPDEST PUSH2 0x395 JUMP JUMPDEST PUSH1 0x1 PUSH1 0x1 PUSH1 0xA0 SHL SUB DUP3 AND PUSH1 0x0 SWAP1 DUP2 MSTORE PUSH1 0x20 DUP2 SWAP1 MSTORE PUSH1 0x40 DUP2 KECCAK256 SLOAD DUP2 SWAP1 DUP1 DUP3 SUB PUSH2 0x15D JUMPI PUSH1 0x1 PUSH1 0x0 NOT SWAP3 POP SWAP3 POP POP PUSH2 0x207 JUMP JUMPDEST PUSH1 0x0 PUSH2 0x16C PUSH3 0x15180 TIMESTAMP PUSH2 0x473 JUMP JUMPDEST PUSH1 0x1 PUSH1 0x1 PUSH1 0xA0 SHL SUB DUP8 AND PUSH1 0x0 SWAP1 DUP2 MSTORE PUSH1 0x1 PUSH1 0x20 MSTORE PUSH1 0x40 DUP2 KECCAK256 SLOAD SWAP2 SWAP3 POP SWAP1 DUP3 EQ PUSH2 0x196 JUMPI PUSH1 0x0 PUSH2 0x1B0 JUMP JUMPDEST PUSH1 0x1 PUSH1 0x1 PUSH1 0xA0 SHL SUB DUP8 AND PUSH1 0x0 SWAP1 DUP2 MSTORE PUSH1 0x2 PUSH1 0x20 MSTORE PUSH1 0x40 SWAP1 KECCAK256 SLOAD JUMPDEST SWAP1 POP DUP3 PUSH2 0x1BD DUP8 DUP4 PUSH2 0x495 JUMP JUMPDEST GT PUSH2 0x1E5 JUMPI PUSH1 0x1 DUP7 PUSH2 0x1CF DUP4 DUP7 PUSH2 0x4AE JUMP JUMPDEST PUSH2 0x1D9 SWAP2 SWAP1 PUSH2 0x4AE JUMP JUMPDEST SWAP5 POP SWAP5 POP POP POP POP PUSH2 0x207 JUMP JUMPDEST PUSH1 0x0 DUP2 DUP5 GT PUSH2 0x1F5 JUMPI PUSH1 0x0 PUSH2 0x1FF JUMP JUMPDEST PUSH2 0x1FF DUP3 DUP6 PUSH2 0x4AE JUMP JUMPDEST SWAP5 POP SWAP5 POP POP POP POP JUMPDEST SWAP3 POP SWAP3 SWAP1 POP JUMP JUMPDEST CALLER PUSH1 0x0 PUSH2 0x21E PUSH3 0x15180 TIMESTAMP PUSH2 0x473 JUMP JUMPDEST PUSH1 0x1 PUSH1 0x1 PUSH1 0xA0 SHL SUB DUP4 AND PUSH1 0x0 SWAP1 DUP2 MSTORE PUSH1 0x1 PUSH1 0x20 MSTORE PUSH1 0x40 SWAP1 KECCAK256 SLOAD SWAP1 SWAP2 POP DUP2 EQ PUSH2 0x28F JUMPI PUSH1 0x1 PUSH1 0x1 PUSH1 0xA0 SHL SUB DUP3 AND PUSH1 0x0 DUP2 DUP2 MSTORE PUSH1 0x1 PUSH1 0x20 SWAP1 DUP2 MSTORE PUSH1 0x40 DUP1 DUP4 KECCAK256 DUP6 SWAP1 SSTORE PUSH1 0x2 SWAP1 SWAP2 MSTORE DUP1 DUP3 KECCAK256 DUP3 SWAP1 SSTORE MLOAD PUSH32 0xB9D5023FF2C20AEDD12A3DB7B7A63E8191D40BBAA5B2755D10E4348CD7FCBB66 SWAP2 SWAP1 LOG2 JUMPDEST CALLER PUSH1 0x0 SWAP1 DUP2 MSTORE PUSH1 0x20 DUP2 SWAP1 MSTORE PUSH1 0x40 SWAP1 KECCAK256 SLOAD DUP1 ISZERO PUSH2 0x323 JUMPI CALLER PUSH1 0x0 SWAP1 DUP2 MSTORE PUSH1 0x2 PUSH1 0x20 MSTORE PUSH1 0x40 SWAP1 KECCAK256 SLOAD DUP2 SWAP1 PUSH2 0x2C2 SWAP1 DUP7 SWAP1 PUSH2 0x495 JUMP JUMPDEST GT ISZERO PUSH2 0x323 JUMPI PUSH1 0x40 MLOAD PUSH3 0x461BCD PUSH1 0xE5 SHL DUP2 MSTORE PUSH1 0x20 PUSH1 0x4 DUP3 ADD MSTORE PUSH1 0x26 PUSH1 0x24 DUP3 ADD MSTORE PUSH32 0x427564676574436F6E74726F6C6C65723A206461696C79206C696D6974206578 PUSH1 0x44 DUP3 ADD MSTORE PUSH6 0x18D959591959 PUSH1 0xD2 SHL PUSH1 0x64 DUP3 ADD MSTORE PUSH1 0x84 ADD PUSH1 0x40 MLOAD DUP1 SWAP2 SUB SWAP1 REVERT JUMPDEST CALLER PUSH1 0x0 SWAP1 DUP2 MSTORE PUSH1 0x2 PUSH1 0x20 MSTORE PUSH1 0x40 DUP2 KECCAK256 DUP1 SLOAD DUP7 SWAP3 SWAP1 PUSH2 0x342 SWAP1 DUP5 SWAP1 PUSH2 0x495 JUMP JUMPDEST SWAP1 SWAP2 SSTORE POP POP CALLER PUSH1 0x0 DUP2 DUP2 MSTORE PUSH1 0x2 PUSH1 0x20 SWAP1 DUP2 MSTORE PUSH1 0x40 SWAP2 DUP3 SWAP1 KECCAK256 SLOAD DUP3 MLOAD DUP9 DUP2 MSTORE SWAP2 DUP3 ADD MSTORE PUSH32 0x765BE995ADDB0FB6C222C79511546C900671DDC49141069770AF142E8FF0CFB2 SWAP2 ADD PUSH1 0x40 MLOAD DUP1 SWAP2 SUB SWAP1 LOG2 POP POP POP POP JUMP JUMPDEST CALLER PUSH1 0x0 DUP2 DUP2 MSTORE PUSH1 0x20 DUP2 DUP2 MSTORE PUSH1 0x40 SWAP2 DUP3 SWAP1 KECCAK256 DUP5 SWAP1 SSTORE SWAP1 MLOAD DUP4 DUP2 MSTORE PUSH32 0xD3D22FFD28B02735CF411BD7F925BD8DA01212C7028153E0D632E2953AC3088E SWAP2 ADD PUSH1 0x40 MLOAD DUP1 SWAP2 SUB SWAP1 LOG2 POP JUMP JUMPDEST DUP1 CALLDATALOAD PUSH1 0x1 PUSH1 0x1 PUSH1 0xA0 SHL SUB DUP2 AND DUP2 EQ PUSH2 0x3F3 JUMPI PUSH1 0x0 DUP1 REVERT JUMPDEST SWAP2 SWAP1 POP JUMP JUMPDEST PUSH1 0x0 DUP1 PUSH1 0x40 DUP4 DUP6 SUB SLT ISZERO PUSH2 0x40B JUMPI PUSH1 0x0 DUP1 REVERT JUMPDEST PUSH2 0x414 DUP4 PUSH2 0x3DC JUMP JUMPDEST SWAP5 PUSH1 0x20 SWAP4 SWAP1 SWAP4 ADD CALLDATALOAD SWAP4 POP POP POP JUMP JUMPDEST PUSH1 0x0 PUSH1 0x20 DUP3 DUP5 SUB SLT ISZERO PUSH2 0x434 JUMPI PUSH1 0x0 DUP1 REVERT JUMPDEST PUSH2 0x43D DUP3 PUSH2 0x3DC JUMP JUMPDEST SWAP4 SWAP3 POP POP POP JUMP JUMPDEST PUSH1 0x0 PUSH1 0x20 DUP3 DUP5 SUB SLT ISZERO PUSH2 0x456 JUMPI PUSH1 0x0 DUP1 REVERT JUMPDEST POP CALLDATALOAD SWAP2 SWAP1 POP JUMP JUMPDEST PUSH4 0x4E487B71 PUSH1 0xE0 SHL PUSH1 0x0 MSTORE PUSH1 0x11 PUSH1 0x4 MSTORE PUSH1 0x24 PUSH1 0x0 REVERT JUMPDEST PUSH1 0x0 DUP3 PUSH2 0x490 JUMPI PUSH4 0x4E487B71 PUSH1 0xE0 SHL PUSH1 0x0 MSTORE PUSH1 0x12 PUSH1 0x4 MSTORE PUSH1 0x24 PUSH1 0x0 REVERT JUMPDEST POP DIV SWAP1 JUMP JUMPDEST DUP1 DUP3 ADD DUP1 DUP3 GT ISZERO PUSH2 0x4A8 JUMPI PUSH2 0x4A8 PUSH2 0x45D JUMP JUMPDEST SWAP3 SWAP2 POP POP JUMP JUMPDEST DUP2 DUP2 SUB DUP2 DUP2 GT ISZERO PUSH2 0x4A8 JUMPI PUSH2 0x4A8 PUSH2 0x45D JUMP INVALID LOG2 PUSH5 0x6970667358 0x22 SLT KECCAK256 0x2E 0x5C 0x29 0xAF 0xBD 0x1E 0xBF SWAP7 0xF7 0xFB PUSH30 0x3AF7F66E729C749FF1F1E7B809369E221CB72B79F464736F6C6343000814 STOP CALLER "},"methodIdentifiers":{"canSpend(address,uint256)":"1881656b","currentDayStart(address)":"2bb37482","dailyLimitWei(address)":"92abf049","recordSpend(uint256)":"31159b41","setDailyLimit(uint256)":"b20d30a9","spentToday(address)":"8aeac501"}}}}}